{
  "contractName": "PoliTokenFund",
  "abi": [
    {
      "inputs": [
        {
          "internalType": "contract DaiToken",
          "name": "_daiContract",
          "type": "address"
        },
        {
          "internalType": "contract PoliToken",
          "name": "_tokenContract",
          "type": "address"
        },
        {
          "internalType": "int256",
          "name": "_tokenPrice",
          "type": "int256"
        }
      ],
      "payable": false,
      "stateMutability": "nonpayable",
      "type": "constructor"
    },
    {
      "anonymous": false,
      "inputs": [
        {
          "indexed": false,
          "internalType": "string",
          "name": "_description",
          "type": "string"
        }
      ],
      "name": "NewProvableQuery",
      "type": "event"
    },
    {
      "anonymous": false,
      "inputs": [
        {
          "indexed": false,
          "internalType": "string",
          "name": "_outcome",
          "type": "string"
        }
      ],
      "name": "NewPublicOutcome",
      "type": "event"
    },
    {
      "anonymous": false,
      "inputs": [
        {
          "indexed": true,
          "internalType": "address",
          "name": "_from",
          "type": "address"
        },
        {
          "indexed": false,
          "internalType": "uint256",
          "name": "_value",
          "type": "uint256"
        }
      ],
      "name": "Paid",
      "type": "event"
    },
    {
      "anonymous": false,
      "inputs": [
        {
          "indexed": false,
          "internalType": "address",
          "name": "_buyer",
          "type": "address"
        },
        {
          "indexed": false,
          "internalType": "uint256",
          "name": "_amount",
          "type": "uint256"
        }
      ],
      "name": "Sell",
      "type": "event"
    },
    {
      "payable": true,
      "stateMutability": "payable",
      "type": "fallback"
    },
    {
      "constant": true,
      "inputs": [],
      "name": "capitalizationRatio",
      "outputs": [
        {
          "internalType": "uint256",
          "name": "",
          "type": "uint256"
        }
      ],
      "payable": false,
      "stateMutability": "view",
      "type": "function"
    },
    {
      "constant": true,
      "inputs": [],
      "name": "daiToken",
      "outputs": [
        {
          "internalType": "contract DaiToken",
          "name": "",
          "type": "address"
        }
      ],
      "payable": false,
      "stateMutability": "view",
      "type": "function"
    },
    {
      "constant": true,
      "inputs": [],
      "name": "lastGrowthRate",
      "outputs": [
        {
          "internalType": "int256",
          "name": "",
          "type": "int256"
        }
      ],
      "payable": false,
      "stateMutability": "view",
      "type": "function"
    },
    {
      "constant": true,
      "inputs": [],
      "name": "lastGrowthTime",
      "outputs": [
        {
          "internalType": "uint256",
          "name": "",
          "type": "uint256"
        }
      ],
      "payable": false,
      "stateMutability": "view",
      "type": "function"
    },
    {
      "constant": true,
      "inputs": [],
      "name": "lastPublicOutcome",
      "outputs": [
        {
          "internalType": "int256",
          "name": "",
          "type": "int256"
        }
      ],
      "payable": false,
      "stateMutability": "view",
      "type": "function"
    },
    {
      "constant": true,
      "inputs": [],
      "name": "tokenContract",
      "outputs": [
        {
          "internalType": "contract PoliToken",
          "name": "",
          "type": "address"
        }
      ],
      "payable": false,
      "stateMutability": "view",
      "type": "function"
    },
    {
      "constant": true,
      "inputs": [],
      "name": "tokenPrice",
      "outputs": [
        {
          "internalType": "uint256",
          "name": "",
          "type": "uint256"
        }
      ],
      "payable": false,
      "stateMutability": "view",
      "type": "function"
    },
    {
      "constant": true,
      "inputs": [],
      "name": "tokensIssued",
      "outputs": [
        {
          "internalType": "uint256",
          "name": "",
          "type": "uint256"
        }
      ],
      "payable": false,
      "stateMutability": "view",
      "type": "function"
    },
    {
      "constant": false,
      "inputs": [
        {
          "internalType": "uint256",
          "name": "_poliAmount",
          "type": "uint256"
        }
      ],
      "name": "buyTokens",
      "outputs": [
        {
          "internalType": "bool",
          "name": "success",
          "type": "bool"
        }
      ],
      "payable": false,
      "stateMutability": "nonpayable",
      "type": "function"
    },
    {
      "constant": false,
      "inputs": [
        {
          "internalType": "uint256",
          "name": "_poliAmount",
          "type": "uint256"
        }
      ],
      "name": "sellTokens",
      "outputs": [
        {
          "internalType": "bool",
          "name": "success",
          "type": "bool"
        }
      ],
      "payable": false,
      "stateMutability": "nonpayable",
      "type": "function"
    },
    {
      "constant": false,
      "inputs": [],
      "name": "accrueGrowth",
      "outputs": [
        {
          "internalType": "bool",
          "name": "success",
          "type": "bool"
        }
      ],
      "payable": false,
      "stateMutability": "nonpayable",
      "type": "function"
    },
    {
      "constant": false,
      "inputs": [
        {
          "internalType": "bytes32",
          "name": "_queryId",
          "type": "bytes32"
        },
        {
          "internalType": "string",
          "name": "_result",
          "type": "string"
        }
      ],
      "name": "__callback",
      "outputs": [],
      "payable": false,
      "stateMutability": "nonpayable",
      "type": "function"
    },
    {
      "constant": false,
      "inputs": [
        {
          "internalType": "bytes32",
          "name": "_myid",
          "type": "bytes32"
        },
        {
          "internalType": "string",
          "name": "_result",
          "type": "string"
        },
        {
          "internalType": "bytes",
          "name": "_proof",
          "type": "bytes"
        }
      ],
      "name": "__callback",
      "outputs": [],
      "payable": false,
      "stateMutability": "nonpayable",
      "type": "function"
    }
  ],
  "bytecode": "0x6080604052600173__FixidityLib___________________________63bd5cbd6290916040518263ffffffff1660e01b81526004018082815260200191505060206040518083038186803b1580156200005757600080fd5b505af41580156200006c573d6000803e3d6000fd5b505050506040513d60208110156200008357600080fd5b8101908080519060200190929190505050600a55600473__FixidityLib___________________________63bd5cbd6290916040518263ffffffff1660e01b81526004018082815260200191505060206040518083038186803b158015620000ea57600080fd5b505af4158015620000ff573d6000803e3d6000fd5b505050506040513d60208110156200011657600080fd5b810190808051906020019092919050505073__FixidityLib___________________________63f59842369091606473__FixidityLib___________________________63bd5cbd6290916040518263ffffffff1660e01b81526004018082815260200191505060206040518083038186803b1580156200019657600080fd5b505af4158015620001ab573d6000803e3d6000fd5b505050506040513d6020811015620001c257600080fd5b81019080805190602001909291905050506040518363ffffffff1660e01b8152600401808381526020018281526020019250505060206040518083038186803b1580156200020f57600080fd5b505af415801562000224573d6000803e3d6000fd5b505050506040513d60208110156200023b57600080fd5b8101908080519060200190929190505050600b5542600c55600173__FixidityLib___________________________63bd5cbd6290916040518263ffffffff1660e01b81526004018082815260200191505060206040518083038186803b158015620002a657600080fd5b505af4158015620002bb573d6000803e3d6000fd5b505050506040513d6020811015620002d257600080fd5b8101908080519060200190929190505050600d55348015620002f357600080fd5b506040516200427138038062004271833981810160405260608110156200031957600080fd5b8101908080519060200190929190805190602001909291908051906020019092919050505033600560006101000a81548173ffffffffffffffffffffffffffffffffffffffff021916908373ffffffffffffffffffffffffffffffffffffffff16021790555081600760006101000a81548173ffffffffffffffffffffffffffffffffffffffff021916908373ffffffffffffffffffffffffffffffffffffffff1602179055508073__FixidityLib___________________________63bd5cbd6290916040518263ffffffff1660e01b81526004018082815260200191505060206040518083038186803b1580156200041257600080fd5b505af415801562000427573d6000803e3d6000fd5b505050506040513d60208110156200043e57600080fd5b810190808051906020019092919050505060088190555082600660006101000a81548173ffffffffffffffffffffffffffffffffffffffff021916908373ffffffffffffffffffffffffffffffffffffffff160217905550505050613dc880620004a96000396000f3fe6080604052600436106100c25760003560e01c80636c11bcd31161007f5780639cd022cb116100595780639cd022cb146104f65780639db2d81214610521578063be22f54614610550578063f412a18a146105a7576100c2565b80636c11bcd31461044d5780637c48bbda146104a05780637ff9b596146104cb576100c2565b806302687f981461011257806311e7b08b1461013d57806327dc297e146101685780633610724e1461023a57806338bbfa501461028d57806355a373d6146103f6575b3373ffffffffffffffffffffffffffffffffffffffff167f737c69225d647e5994eab1a6c301bf6d9232beb2759ae1e27a8966b4732bc489346040518082815260200191505060405180910390a2005b34801561011e57600080fd5b506101276105d2565b6040518082815260200191505060405180910390f35b34801561014957600080fd5b506101526105d8565b6040518082815260200191505060405180910390f35b34801561017457600080fd5b506102386004803603604081101561018b57600080fd5b8101908080359060200190929190803590602001906401000000008111156101b257600080fd5b8201836020820111156101c457600080fd5b803590602001918460018302840111640100000000831117156101e657600080fd5b91908080601f016020809104026020016040519081016040528093929190818152602001838380828437600081840152601f19601f8201169050808301925050505050505091929192905050506105de565b005b34801561024657600080fd5b506102736004803603602081101561025d57600080fd5b81019080803590602001909291905050506106ff565b604051808215151515815260200191505060405180910390f35b34801561029957600080fd5b506103f4600480360360608110156102b057600080fd5b8101908080359060200190929190803590602001906401000000008111156102d757600080fd5b8201836020820111156102e957600080fd5b8035906020019184600183028401116401000000008311171561030b57600080fd5b91908080601f016020809104026020016040519081016040528093929190818152602001838380828437600081840152601f19601f8201169050808301925050505050505091929192908035906020019064010000000081111561036e57600080fd5b82018360208201111561038057600080fd5b803590602001918460018302840111640100000000831117156103a257600080fd5b91908080601f016020809104026020016040519081016040528093929190818152602001838380828437600081840152601f19601f820116905080830192505050505050509192919290505050610a9f565b005b34801561040257600080fd5b5061040b610ac2565b604051808273ffffffffffffffffffffffffffffffffffffffff1673ffffffffffffffffffffffffffffffffffffffff16815260200191505060405180910390f35b34801561045957600080fd5b506104866004803603602081101561047057600080fd5b8101908080359060200190929190505050610ae8565b604051808215151515815260200191505060405180910390f35b3480156104ac57600080fd5b506104b5610e88565b6040518082815260200191505060405180910390f35b3480156104d757600080fd5b506104e0610e8e565b6040518082815260200191505060405180910390f35b34801561050257600080fd5b5061050b610e94565b6040518082815260200191505060405180910390f35b34801561052d57600080fd5b50610536610e9a565b604051808215151515815260200191505060405180910390f35b34801561055c57600080fd5b50610565610f05565b604051808273ffffffffffffffffffffffffffffffffffffffff1673ffffffffffffffffffffffffffffffffffffffff16815260200191505060405180910390f35b3480156105b357600080fd5b506105bc610f2b565b6040518082815260200191505060405180910390f35b600b5481565b600d5481565b6105e6610f31565b73ffffffffffffffffffffffffffffffffffffffff163373ffffffffffffffffffffffffffffffffffffffff161461061d57600080fd5b7ff07b2223df45e70fcdee144c970199ab645065ed7d1649671d4c50372dc71f4a816040518080602001828103825283818151815260200191508051906020019080838360005b8381101561067f578082015181840152602081019050610664565b50505050905090810190601f1680156106ac5780820380516001836020036101000a031916815260200191505b509250505060405180910390a16106c481600261124e565b600a819055506106d261153e565b600b819055506106e06119d5565b60088190555042600c819055506106f5611c35565b600d819055505050565b60008061070b8361221c565b9050600361071b600c54426123ee565b111561072657600080fd5b82600760009054906101000a900473ffffffffffffffffffffffffffffffffffffffff1673ffffffffffffffffffffffffffffffffffffffff166370a08231306040518263ffffffff1660e01b8152600401808273ffffffffffffffffffffffffffffffffffffffff1673ffffffffffffffffffffffffffffffffffffffff16815260200191505060206040518083038186803b1580156107c657600080fd5b505afa1580156107da573d6000803e3d6000fd5b505050506040513d60208110156107f057600080fd5b8101908080519060200190929190505050101561080c57600080fd5b600660009054906101000a900473ffffffffffffffffffffffffffffffffffffffff1673ffffffffffffffffffffffffffffffffffffffff166323b872dd3330846040518463ffffffff1660e01b8152600401808473ffffffffffffffffffffffffffffffffffffffff1673ffffffffffffffffffffffffffffffffffffffff1681526020018373ffffffffffffffffffffffffffffffffffffffff1673ffffffffffffffffffffffffffffffffffffffff1681526020018281526020019350505050602060405180830381600087803b1580156108e957600080fd5b505af11580156108fd573d6000803e3d6000fd5b505050506040513d602081101561091357600080fd5b810190808051906020019092919050505061092d57600080fd5b600760009054906101000a900473ffffffffffffffffffffffffffffffffffffffff1673ffffffffffffffffffffffffffffffffffffffff1663a9059cbb33856040518363ffffffff1660e01b8152600401808373ffffffffffffffffffffffffffffffffffffffff1673ffffffffffffffffffffffffffffffffffffffff16815260200182815260200192505050602060405180830381600087803b1580156109d657600080fd5b505af11580156109ea573d6000803e3d6000fd5b505050506040513d6020811015610a0057600080fd5b8101908080519060200190929190505050610a1a57600080fd5b826009600082825401925050819055507f5e5e995ce3133561afceaa51a9a154d5db228cd7525d34df5185582c18d3df093384604051808373ffffffffffffffffffffffffffffffffffffffff1673ffffffffffffffffffffffffffffffffffffffff1681526020018281526020019250505060405180910390a16001915050919050565b6000801b600360008060001b815260200190815260200160002081905550505050565b600760009054906101000a900473ffffffffffffffffffffffffffffffffffffffff1681565b600080610af48361221c565b90506003610b04600c54426123ee565b1115610b0f57600080fd5b80600660009054906101000a900473ffffffffffffffffffffffffffffffffffffffff1673ffffffffffffffffffffffffffffffffffffffff166370a08231306040518263ffffffff1660e01b8152600401808273ffffffffffffffffffffffffffffffffffffffff1673ffffffffffffffffffffffffffffffffffffffff16815260200191505060206040518083038186803b158015610baf57600080fd5b505afa158015610bc3573d6000803e3d6000fd5b505050506040513d6020811015610bd957600080fd5b81019080805190602001909291905050501015610bf557600080fd5b600760009054906101000a900473ffffffffffffffffffffffffffffffffffffffff1673ffffffffffffffffffffffffffffffffffffffff166323b872dd3330866040518463ffffffff1660e01b8152600401808473ffffffffffffffffffffffffffffffffffffffff1673ffffffffffffffffffffffffffffffffffffffff1681526020018373ffffffffffffffffffffffffffffffffffffffff1673ffffffffffffffffffffffffffffffffffffffff1681526020018281526020019350505050602060405180830381600087803b158015610cd257600080fd5b505af1158015610ce6573d6000803e3d6000fd5b505050506040513d6020811015610cfc57600080fd5b8101908080519060200190929190505050610d1657600080fd5b600660009054906101000a900473ffffffffffffffffffffffffffffffffffffffff1673ffffffffffffffffffffffffffffffffffffffff1663a9059cbb33836040518363ffffffff1660e01b8152600401808373ffffffffffffffffffffffffffffffffffffffff1673ffffffffffffffffffffffffffffffffffffffff16815260200182815260200192505050602060405180830381600087803b158015610dbf57600080fd5b505af1158015610dd3573d6000803e3d6000fd5b505050506040513d6020811015610de957600080fd5b8101908080519060200190929190505050610e0357600080fd5b826009600082825403925050819055507f5e5e995ce3133561afceaa51a9a154d5db228cd7525d34df5185582c18d3df093084604051808373ffffffffffffffffffffffffffffffffffffffff1673ffffffffffffffffffffffffffffffffffffffff1681526020018281526020019250505060405180910390a16001915050919050565b60095481565b60085481565b600c5481565b6000600560009054906101000a900473ffffffffffffffffffffffffffffffffffffffff1673ffffffffffffffffffffffffffffffffffffffff163373ffffffffffffffffffffffffffffffffffffffff1614610ef657600080fd5b610efe612454565b6001905090565b600660009054906101000a900473ffffffffffffffffffffffffffffffffffffffff1681565b600a5481565b60008073ffffffffffffffffffffffffffffffffffffffff16600160009054906101000a900473ffffffffffffffffffffffffffffffffffffffff1673ffffffffffffffffffffffffffffffffffffffff161480610fb957506000610fb7600160009054906101000a900473ffffffffffffffffffffffffffffffffffffffff166125e1565b145b15610fca57610fc860006125ec565b505b600160009054906101000a900473ffffffffffffffffffffffffffffffffffffffff1673ffffffffffffffffffffffffffffffffffffffff166338cc48316040518163ffffffff1660e01b8152600401602060405180830381600087803b15801561103457600080fd5b505af1158015611048573d6000803e3d6000fd5b505050506040513d602081101561105e57600080fd5b810190808051906020019092919050505073ffffffffffffffffffffffffffffffffffffffff166000809054906101000a900473ffffffffffffffffffffffffffffffffffffffff1673ffffffffffffffffffffffffffffffffffffffff16146111a757600160009054906101000a900473ffffffffffffffffffffffffffffffffffffffff1673ffffffffffffffffffffffffffffffffffffffff166338cc48316040518163ffffffff1660e01b8152600401602060405180830381600087803b15801561112c57600080fd5b505af1158015611140573d6000803e3d6000fd5b505050506040513d602081101561115657600080fd5b81019080805190602001909291905050506000806101000a81548173ffffffffffffffffffffffffffffffffffffffff021916908373ffffffffffffffffffffffffffffffffffffffff1602179055505b6000809054906101000a900473ffffffffffffffffffffffffffffffffffffffff1673ffffffffffffffffffffffffffffffffffffffff1663c281d19e6040518163ffffffff1660e01b815260040160206040518083038186803b15801561120e57600080fd5b505afa158015611222573d6000803e3d6000fd5b505050506040513d602081101561123857600080fd5b8101908080519060200190929190505050905090565b60006060604051806020016040528060008152509050600080905060008090506000809050606061127e886125fd565b905061129981604051806020016040528060008152506126aa565b156112af576112a88888612799565b9250611381565b6112bc8860018a516128ac565b94506112c88588612799565b93508373__FixidityLib___________________________633c4308a890917fffffffffffffffffffffffffffffffffffffffffffff2c3de43133125f0000006040518363ffffffff1660e01b8152600401808381526020018281526020019250505060206040518083038186803b15801561134357600080fd5b505af4158015611357573d6000803e3d6000fd5b505050506040513d602081101561136d57600080fd5b810190808051906020019092919050505092505b8273__FixidityLib___________________________63bd5cbd6290916040518263ffffffff1660e01b81526004018082815260200191505060206040518083038186803b1580156113d257600080fd5b505af41580156113e6573d6000803e3d6000fd5b505050506040513d60208110156113fc57600080fd5b810190808051906020019092919050505073__FixidityLib___________________________63f5984236909189600a0a73__FixidityLib___________________________63bd5cbd6290916040518263ffffffff1660e01b81526004018082815260200191505060206040518083038186803b15801561147d57600080fd5b505af4158015611491573d6000803e3d6000fd5b505050506040513d60208110156114a757600080fd5b81019080805190602001909291905050506040518363ffffffff1660e01b8152600401808381526020018281526020019250505060206040518083038186803b1580156114f357600080fd5b505af4158015611507573d6000803e3d6000fd5b505050506040513d602081101561151d57600080fd5b81019080805190602001909291905050509150819550505050505092915050565b600080601473__FixidityLib___________________________63bd5cbd6290916040518263ffffffff1660e01b81526004018082815260200191505060206040518083038186803b15801561159357600080fd5b505af41580156115a7573d6000803e3d6000fd5b505050506040513d60208110156115bd57600080fd5b810190808051906020019092919050505073__FixidityLib___________________________63f59842369091606473__FixidityLib___________________________63bd5cbd6290916040518263ffffffff1660e01b81526004018082815260200191505060206040518083038186803b15801561163c57600080fd5b505af4158015611650573d6000803e3d6000fd5b505050506040513d602081101561166657600080fd5b81019080805190602001909291905050506040518363ffffffff1660e01b8152600401808381526020018281526020019250505060206040518083038186803b1580156116b257600080fd5b505af41580156116c6573d6000803e3d6000fd5b505050506040513d60208110156116dc57600080fd5b810190808051906020019092919050505090506000601073__FixidityLib___________________________63bd5cbd6290916040518263ffffffff1660e01b81526004018082815260200191505060206040518083038186803b15801561174357600080fd5b505af4158015611757573d6000803e3d6000fd5b505050506040513d602081101561176d57600080fd5b810190808051906020019092919050505073__FixidityLib___________________________63f59842369091606473__FixidityLib___________________________63bd5cbd6290916040518263ffffffff1660e01b81526004018082815260200191505060206040518083038186803b1580156117ec57600080fd5b505af4158015611800573d6000803e3d6000fd5b505050506040513d602081101561181657600080fd5b81019080805190602001909291905050506040518363ffffffff1660e01b8152600401808381526020018281526020019250505060206040518083038186803b15801561186257600080fd5b505af4158015611876573d6000803e3d6000fd5b505050506040513d602081101561188c57600080fd5b8101908080519060200190929190505050905060008273__FixidityLib___________________________63b93ea8129091600a5473__FixidityLib___________________________633c4308a89091876040518363ffffffff1660e01b8152600401808381526020018281526020019250505060206040518083038186803b15801561191957600080fd5b505af415801561192d573d6000803e3d6000fd5b505050506040513d602081101561194357600080fd5b81019080805190602001909291905050506040518363ffffffff1660e01b8152600401808381526020018281526020019250505060206040518083038186803b15801561198f57600080fd5b505af41580156119a3573d6000803e3d6000fd5b505050506040513d60208110156119b957600080fd5b8101908080519060200190929190505050905080935050505090565b60008060085473__FixidityLib___________________________633c4308a89091600b5473__FixidityLib___________________________63f59842369091600c73__FixidityLib___________________________63bd5cbd6290916040518263ffffffff1660e01b81526004018082815260200191505060206040518083038186803b158015611a6857600080fd5b505af4158015611a7c573d6000803e3d6000fd5b505050506040513d6020811015611a9257600080fd5b81019080805190602001909291905050506040518363ffffffff1660e01b8152600401808381526020018281526020019250505060206040518083038186803b158015611ade57600080fd5b505af4158015611af2573d6000803e3d6000fd5b505050506040513d6020811015611b0857600080fd5b810190808051906020019092919050505073__FixidityLib___________________________63a5f3c23b909169d3c21bcecceda10000006040518363ffffffff1660e01b8152600401808381526020018281526020019250505060206040518083038186803b158015611b7b57600080fd5b505af4158015611b8f573d6000803e3d6000fd5b505050506040513d6020811015611ba557600080fd5b81019080805190602001909291905050506040518363ffffffff1660e01b8152600401808381526020018281526020019250505060206040518083038186803b158015611bf157600080fd5b505af4158015611c05573d6000803e3d6000fd5b505050506040513d6020811015611c1b57600080fd5b810190808051906020019092919050505090508091505090565b60008060085473__FixidityLib___________________________633c4308a89091611ef2600760009054906101000a900473ffffffffffffffffffffffffffffffffffffffff1673ffffffffffffffffffffffffffffffffffffffff166370a08231600560009054906101000a900473ffffffffffffffffffffffffffffffffffffffff166040518263ffffffff1660e01b8152600401808273ffffffffffffffffffffffffffffffffffffffff1673ffffffffffffffffffffffffffffffffffffffff16815260200191505060206040518083038186803b158015611d1b57600080fd5b505afa158015611d2f573d6000803e3d6000fd5b505050506040513d6020811015611d4557600080fd5b8101908080519060200190929190505050611ee4600760009054906101000a900473ffffffffffffffffffffffffffffffffffffffff1673ffffffffffffffffffffffffffffffffffffffff166370a08231306040518263ffffffff1660e01b8152600401808273ffffffffffffffffffffffffffffffffffffffff1673ffffffffffffffffffffffffffffffffffffffff16815260200191505060206040518083038186803b158015611df857600080fd5b505afa158015611e0c573d6000803e3d6000fd5b505050506040513d6020811015611e2257600080fd5b8101908080519060200190929190505050600760009054906101000a900473ffffffffffffffffffffffffffffffffffffffff1673ffffffffffffffffffffffffffffffffffffffff166318160ddd6040518163ffffffff1660e01b815260040160206040518083038186803b158015611e9b57600080fd5b505afa158015611eaf573d6000803e3d6000fd5b505050506040513d6020811015611ec557600080fd5b810190808051906020019092919050505061296890919063ffffffff16565b61296890919063ffffffff16565b73__FixidityLib___________________________63bd5cbd6290916040518263ffffffff1660e01b81526004018082815260200191505060206040518083038186803b158015611f4257600080fd5b505af4158015611f56573d6000803e3d6000fd5b505050506040513d6020811015611f6c57600080fd5b81019080805190602001909291905050506040518363ffffffff1660e01b8152600401808381526020018281526020019250505060206040518083038186803b158015611fb857600080fd5b505af4158015611fcc573d6000803e3d6000fd5b505050506040513d6020811015611fe257600080fd5b8101908080519060200190929190505050905060008114156120115769d3c21bcecceda1000000915050612219565b6000600660009054906101000a900473ffffffffffffffffffffffffffffffffffffffff1673ffffffffffffffffffffffffffffffffffffffff166370a08231306040518263ffffffff1660e01b8152600401808273ffffffffffffffffffffffffffffffffffffffff1673ffffffffffffffffffffffffffffffffffffffff16815260200191505060206040518083038186803b1580156120b257600080fd5b505afa1580156120c6573d6000803e3d6000fd5b505050506040513d60208110156120dc57600080fd5b810190808051906020019092919050505073__FixidityLib___________________________63bd5cbd6290916040518263ffffffff1660e01b81526004018082815260200191505060206040518083038186803b15801561213d57600080fd5b505af4158015612151573d6000803e3d6000fd5b505050506040513d602081101561216757600080fd5b8101908080519060200190929190505050905060008173__FixidityLib___________________________63f59842369091856040518363ffffffff1660e01b8152600401808381526020018281526020019250505060206040518083038186803b1580156121d557600080fd5b505af41580156121e9573d6000803e3d6000fd5b505050506040513d60208110156121ff57600080fd5b810190808051906020019092919050505090508093505050505b90565b6000808273__FixidityLib___________________________63bd5cbd6290916040518263ffffffff1660e01b81526004018082815260200191505060206040518083038186803b15801561227057600080fd5b505af4158015612284573d6000803e3d6000fd5b505050506040513d602081101561229a57600080fd5b810190808051906020019092919050505073__FixidityLib___________________________633c4308a890916008546040518363ffffffff1660e01b8152600401808381526020018281526020019250505060206040518083038186803b15801561230557600080fd5b505af4158015612319573d6000803e3d6000fd5b505050506040513d602081101561232f57600080fd5b810190808051906020019092919050505073__FixidityLib___________________________634daaea539091601860126040518463ffffffff1660e01b8152600401808481526020018360ff1681526020018260ff168152602001935050505060206040518083038186803b1580156123a857600080fd5b505af41580156123bc573d6000803e3d6000fd5b505050506040513d60208110156123d257600080fd5b8101908080519060200190929190505050905080915050919050565b6000818311156123fd57600080fd5b600060189050600061242c603c61241e603c856129b290919063ffffffff16565b6129b290919063ffffffff16565b905080612442868661296890919063ffffffff16565b8161244957fe5b049250505092915050565b476124936040518060400160405280600381526020017f55524c0000000000000000000000000000000000000000000000000000000000815250612a38565b11156124e9577f4cd3e05558dc434b7b222972fa66803efd137976460dd5bd71d67fdf40195be460405180806020018281038252604b815260200180613cb3604b913960600191505060405180910390a16125df565b60606124f3612dc9565b9050606061254f6040518060a0016040528060758152602001613d1f60759139836040518060400160405280600681526020017f2e76616c75650000000000000000000000000000000000000000000000000000815250612e18565b90506125906040518060400160405280600381526020017f55524c000000000000000000000000000000000000000000000000000000000081525082612f34565b507f4cd3e05558dc434b7b222972fa66803efd137976460dd5bd71d67fdf40195be4604051808060200182810382526035815260200180613c7e6035913960400191505060405180910390a150505b565b6000813b9050919050565b60006125f661347a565b9050919050565b60608061260d83600060016128ac565b90506060604051806020016040528060008152509050612662826040518060400160405280600181526020017f2d000000000000000000000000000000000000000000000000000000000000008152506126aa565b156126a0576040518060400160405280600181526020017f2d0000000000000000000000000000000000000000000000000000000000000081525090505b8092505050919050565b6000816040516020018082805190602001908083835b602083106126e357805182526020820191506020810190506020830392506126c0565b6001836020036101000a03801982511681845116808217855250505050505090500191505060405160208183030381529060405280519060200120836040516020018082805190602001908083835b602083106127555780518252602082019150602081019050602083039250612732565b6001836020036101000a0380198251168184511680821785525050505050509050019150506040516020818303038152906040528051906020012014905092915050565b600060608390506000809050600080905060008090505b835181101561288d5760308482815181106127c757fe5b602001015160f81c60f81b60f81c60ff1610158015612803575060398482815181106127ef57fe5b602001015160f81c60f81b60f81c60ff1611155b1561285557811561282657600086141561281c5761288d565b8580600190039650505b600a83029250603084828151811061283a57fe5b602001015160f81c60f81b60f81c60ff160383019250612880565b602e84828151811061286357fe5b602001015160f81c60f81b60f81c60ff16141561287f57600191505b5b80806001019150506127b0565b5060008511156128a05784600a0a820291505b81935050505092915050565b60608084905060608484036040519080825280601f01601f1916602001820160405280156128e95781602001600182028038833980820191505090505b50905060008590505b8481101561295b5782818151811061290657fe5b602001015160f81c60f81b828783038151811061291f57fe5b60200101907effffffffffffffffffffffffffffffffffffffffffffffffffffffffffffff1916908160001a90535080806001019150506128f2565b5080925050509392505050565b60006129aa83836040518060400160405280601e81526020017f536166654d6174683a207375627472616374696f6e206f766572666c6f7700008152506139d1565b905092915050565b6000808314156129c55760009050612a32565b60008284029050828482816129d657fe5b0414612a2d576040517f08c379a0000000000000000000000000000000000000000000000000000000008152600401808060200182810382526021815260200180613cfe6021913960400191505060405180910390fd5b809150505b92915050565b60008073ffffffffffffffffffffffffffffffffffffffff16600160009054906101000a900473ffffffffffffffffffffffffffffffffffffffff1673ffffffffffffffffffffffffffffffffffffffff161480612ac057506000612abe600160009054906101000a900473ffffffffffffffffffffffffffffffffffffffff166125e1565b145b15612ad157612acf60006125ec565b505b600160009054906101000a900473ffffffffffffffffffffffffffffffffffffffff1673ffffffffffffffffffffffffffffffffffffffff166338cc48316040518163ffffffff1660e01b8152600401602060405180830381600087803b158015612b3b57600080fd5b505af1158015612b4f573d6000803e3d6000fd5b505050506040513d6020811015612b6557600080fd5b810190808051906020019092919050505073ffffffffffffffffffffffffffffffffffffffff166000809054906101000a900473ffffffffffffffffffffffffffffffffffffffff1673ffffffffffffffffffffffffffffffffffffffff1614612cae57600160009054906101000a900473ffffffffffffffffffffffffffffffffffffffff1673ffffffffffffffffffffffffffffffffffffffff166338cc48316040518163ffffffff1660e01b8152600401602060405180830381600087803b158015612c3357600080fd5b505af1158015612c47573d6000803e3d6000fd5b505050506040513d6020811015612c5d57600080fd5b81019080805190602001909291905050506000806101000a81548173ffffffffffffffffffffffffffffffffffffffff021916908373ffffffffffffffffffffffffffffffffffffffff1602179055505b6000809054906101000a900473ffffffffffffffffffffffffffffffffffffffff1673ffffffffffffffffffffffffffffffffffffffff1663524f3889836040518263ffffffff1660e01b81526004018080602001828103825283818151815260200191508051906020019080838360005b83811015612d3b578082015181840152602081019050612d20565b50505050905090810190601f168015612d685780820380516001836020036101000a031916815260200191505b5092505050602060405180830381600087803b158015612d8757600080fd5b505af1158015612d9b573d6000803e3d6000fd5b505050506040513d6020811015612db157600080fd5b81019080805190602001909291905050509050919050565b6060600061069390506000635ebab9f090506000612de782426123ee565b90506000601e8281612df557fe5b049050600081850190506060612e0a82613a91565b905080965050505050505090565b60608383836040516020018084805190602001908083835b60208310612e535780518252602082019150602081019050602083039250612e30565b6001836020036101000a03801982511681845116808217855250505050505090500183805190602001908083835b60208310612ea45780518252602082019150602081019050602083039250612e81565b6001836020036101000a03801982511681845116808217855250505050505090500182805190602001908083835b60208310612ef55780518252602082019150602081019050602083039250612ed2565b6001836020036101000a038019825116818451168082178552505050505050905001935050505060405160208183030381529060405290509392505050565b60008073ffffffffffffffffffffffffffffffffffffffff16600160009054906101000a900473ffffffffffffffffffffffffffffffffffffffff1673ffffffffffffffffffffffffffffffffffffffff161480612fbc57506000612fba600160009054906101000a900473ffffffffffffffffffffffffffffffffffffffff166125e1565b145b15612fcd57612fcb60006125ec565b505b600160009054906101000a900473ffffffffffffffffffffffffffffffffffffffff1673ffffffffffffffffffffffffffffffffffffffff166338cc48316040518163ffffffff1660e01b8152600401602060405180830381600087803b15801561303757600080fd5b505af115801561304b573d6000803e3d6000fd5b505050506040513d602081101561306157600080fd5b810190808051906020019092919050505073ffffffffffffffffffffffffffffffffffffffff166000809054906101000a900473ffffffffffffffffffffffffffffffffffffffff1673ffffffffffffffffffffffffffffffffffffffff16146131aa57600160009054906101000a900473ffffffffffffffffffffffffffffffffffffffff1673ffffffffffffffffffffffffffffffffffffffff166338cc48316040518163ffffffff1660e01b8152600401602060405180830381600087803b15801561312f57600080fd5b505af1158015613143573d6000803e3d6000fd5b505050506040513d602081101561315957600080fd5b81019080805190602001909291905050506000806101000a81548173ffffffffffffffffffffffffffffffffffffffff021916908373ffffffffffffffffffffffffffffffffffffffff1602179055505b60008060009054906101000a900473ffffffffffffffffffffffffffffffffffffffff1673ffffffffffffffffffffffffffffffffffffffff1663524f3889856040518263ffffffff1660e01b81526004018080602001828103825283818151815260200191508051906020019080838360005b8381101561323957808201518184015260208101905061321e565b50505050905090810190601f1680156132665780820380516001836020036101000a031916815260200191505b5092505050602060405180830381600087803b15801561328557600080fd5b505af1158015613299573d6000803e3d6000fd5b505050506040513d60208110156132af57600080fd5b8101908080519060200190929190505050905062030d403a02670de0b6b3a7640000018111156132e5576000801b915050613474565b6000809054906101000a900473ffffffffffffffffffffffffffffffffffffffff1673ffffffffffffffffffffffffffffffffffffffff1663adf59f9982600087876040518563ffffffff1660e01b8152600401808481526020018060200180602001838103835285818151815260200191508051906020019080838360005b83811015613380578082015181840152602081019050613365565b50505050905090810190601f1680156133ad5780820380516001836020036101000a031916815260200191505b50838103825284818151815260200191508051906020019080838360005b838110156133e65780820151818401526020810190506133cb565b50505050905090810190601f1680156134135780820380516001836020036101000a031916815260200191505b50955050505050506020604051808303818588803b15801561343457600080fd5b505af1158015613448573d6000803e3d6000fd5b50505050506040513d602081101561345f57600080fd5b81019080805190602001909291905050509150505b92915050565b60008061349a731d3b2638a7cc9f2cb3d298a3da7a90b67e5506ed6125e1565b111561353c57731d3b2638a7cc9f2cb3d298a3da7a90b67e5506ed600160006101000a81548173ffffffffffffffffffffffffffffffffffffffff021916908373ffffffffffffffffffffffffffffffffffffffff1602179055506135336040518060400160405280600b81526020017f6574685f6d61696e6e6574000000000000000000000000000000000000000000815250613bbe565b600190506139ce565b600061355b73c03a2615d5efaf5f49f60b7bb6583eaec212fdf16125e1565b11156135fd5773c03a2615d5efaf5f49f60b7bb6583eaec212fdf1600160006101000a81548173ffffffffffffffffffffffffffffffffffffffff021916908373ffffffffffffffffffffffffffffffffffffffff1602179055506135f46040518060400160405280600c81526020017f6574685f726f707374656e330000000000000000000000000000000000000000815250613bbe565b600190506139ce565b600061361c73b7a07bcf2ba2f2703b24c0691b5278999c59ac7e6125e1565b11156136be5773b7a07bcf2ba2f2703b24c0691b5278999c59ac7e600160006101000a81548173ffffffffffffffffffffffffffffffffffffffff021916908373ffffffffffffffffffffffffffffffffffffffff1602179055506136b56040518060400160405280600981526020017f6574685f6b6f76616e0000000000000000000000000000000000000000000000815250613bbe565b600190506139ce565b60006136dd73146500cfd35b22e4a392fe0adc06de1a1368ed486125e1565b111561377f5773146500cfd35b22e4a392fe0adc06de1a1368ed48600160006101000a81548173ffffffffffffffffffffffffffffffffffffffff021916908373ffffffffffffffffffffffffffffffffffffffff1602179055506137766040518060400160405280600b81526020017f6574685f72696e6b656279000000000000000000000000000000000000000000815250613bbe565b600190506139ce565b600061379e73a2998efd205fb9d4b4963afb70778d6354ad3a416125e1565b11156138405773a2998efd205fb9d4b4963afb70778d6354ad3a41600160006101000a81548173ffffffffffffffffffffffffffffffffffffffff021916908373ffffffffffffffffffffffffffffffffffffffff1602179055506138376040518060400160405280600a81526020017f6574685f676f65726c6900000000000000000000000000000000000000000000815250613bbe565b600190506139ce565b600061385f736f485c8bf6fc43ea212e93bbf8ce046c7f1cb4756125e1565b11156138c357736f485c8bf6fc43ea212e93bbf8ce046c7f1cb475600160006101000a81548173ffffffffffffffffffffffffffffffffffffffff021916908373ffffffffffffffffffffffffffffffffffffffff160217905550600190506139ce565b60006138e27320e12a1f859b3feae5fb2a0a32c18f5a65555bbf6125e1565b1115613946577320e12a1f859b3feae5fb2a0a32c18f5a65555bbf600160006101000a81548173ffffffffffffffffffffffffffffffffffffffff021916908373ffffffffffffffffffffffffffffffffffffffff160217905550600190506139ce565b60006139657351efaf4c8b3c9afbd5ab9f4bbc82784ab6ef8faa6125e1565b11156139c9577351efaf4c8b3c9afbd5ab9f4bbc82784ab6ef8faa600160006101000a81548173ffffffffffffffffffffffffffffffffffffffff021916908373ffffffffffffffffffffffffffffffffffffffff160217905550600190506139ce565b600090505b90565b6000838311158290613a7e576040517f08c379a00000000000000000000000000000000000000000000000000000000081526004018080602001828103825283818151815260200191508051906020019080838360005b83811015613a43578082015181840152602081019050613a28565b50505050905090810190601f168015613a705780820380516001836020036101000a031916815260200191505b509250505060405180910390fd5b5060008385039050809150509392505050565b60606000821415613ad9576040518060400160405280600181526020017f30000000000000000000000000000000000000000000000000000000000000008152509050613bb9565b600082905060005b60008214613b03578080600101915050600a8281613afb57fe5b049150613ae1565b6060816040519080825280601f01601f191660200182016040528015613b385781602001600182028038833980820191505090505b50905060006001830390505b60008614613bb157600a8681613b5657fe5b0660300160f81b82828060019003935081518110613b7057fe5b60200101907effffffffffffffffffffffffffffffffffffffffffffffffffffffffffffff1916908160001a905350600a8681613ba957fe5b049550613b44565b819450505050505b919050565b8060029080519060200190613bd4929190613bd8565b5050565b828054600181600116156101000203166002900490600052602060002090601f016020900481019282601f10613c1957805160ff1916838001178555613c47565b82800160010185558215613c47579182015b82811115613c46578251825591602001919060010190613c2b565b5b509050613c549190613c58565b5090565b613c7a91905b80821115613c76576000816000905550600101613c5e565b5090565b9056fe50726f7661626c65207175657279207761732073656e742c207374616e64696e6720627920666f722074686520616e737765722e2e50726f7661626c6520717565727920776173204e4f542073656e742c20706c656173652061646420736f6d652045544820746f20636f76657220666f722074686520717565727920666565536166654d6174683a206d756c7469706c69636174696f6e206f766572666c6f77786d6c2868747470733a2f2f7777772e6e6364632e6e6f61612e676f762f6361672f676c6f62616c2f74696d652d7365726965732f676c6f62652f6c616e645f6f6365616e2f616c6c2f31322f313838302d323032302f646174612e786d6c292e64617461436f6c6c656374696f6e2e646174612ea265627a7a72315820952670d14c68f0a8286b536881e677e9a34f9547e0351aba5d5b9ee9f91726be64736f6c63430005100032",
  "deployedBytecode": "0x6080604052600436106100c25760003560e01c80636c11bcd31161007f5780639cd022cb116100595780639cd022cb146104f65780639db2d81214610521578063be22f54614610550578063f412a18a146105a7576100c2565b80636c11bcd31461044d5780637c48bbda146104a05780637ff9b596146104cb576100c2565b806302687f981461011257806311e7b08b1461013d57806327dc297e146101685780633610724e1461023a57806338bbfa501461028d57806355a373d6146103f6575b3373ffffffffffffffffffffffffffffffffffffffff167f737c69225d647e5994eab1a6c301bf6d9232beb2759ae1e27a8966b4732bc489346040518082815260200191505060405180910390a2005b34801561011e57600080fd5b506101276105d2565b6040518082815260200191505060405180910390f35b34801561014957600080fd5b506101526105d8565b6040518082815260200191505060405180910390f35b34801561017457600080fd5b506102386004803603604081101561018b57600080fd5b8101908080359060200190929190803590602001906401000000008111156101b257600080fd5b8201836020820111156101c457600080fd5b803590602001918460018302840111640100000000831117156101e657600080fd5b91908080601f016020809104026020016040519081016040528093929190818152602001838380828437600081840152601f19601f8201169050808301925050505050505091929192905050506105de565b005b34801561024657600080fd5b506102736004803603602081101561025d57600080fd5b81019080803590602001909291905050506106ff565b604051808215151515815260200191505060405180910390f35b34801561029957600080fd5b506103f4600480360360608110156102b057600080fd5b8101908080359060200190929190803590602001906401000000008111156102d757600080fd5b8201836020820111156102e957600080fd5b8035906020019184600183028401116401000000008311171561030b57600080fd5b91908080601f016020809104026020016040519081016040528093929190818152602001838380828437600081840152601f19601f8201169050808301925050505050505091929192908035906020019064010000000081111561036e57600080fd5b82018360208201111561038057600080fd5b803590602001918460018302840111640100000000831117156103a257600080fd5b91908080601f016020809104026020016040519081016040528093929190818152602001838380828437600081840152601f19601f820116905080830192505050505050509192919290505050610a9f565b005b34801561040257600080fd5b5061040b610ac2565b604051808273ffffffffffffffffffffffffffffffffffffffff1673ffffffffffffffffffffffffffffffffffffffff16815260200191505060405180910390f35b34801561045957600080fd5b506104866004803603602081101561047057600080fd5b8101908080359060200190929190505050610ae8565b604051808215151515815260200191505060405180910390f35b3480156104ac57600080fd5b506104b5610e88565b6040518082815260200191505060405180910390f35b3480156104d757600080fd5b506104e0610e8e565b6040518082815260200191505060405180910390f35b34801561050257600080fd5b5061050b610e94565b6040518082815260200191505060405180910390f35b34801561052d57600080fd5b50610536610e9a565b604051808215151515815260200191505060405180910390f35b34801561055c57600080fd5b50610565610f05565b604051808273ffffffffffffffffffffffffffffffffffffffff1673ffffffffffffffffffffffffffffffffffffffff16815260200191505060405180910390f35b3480156105b357600080fd5b506105bc610f2b565b6040518082815260200191505060405180910390f35b600b5481565b600d5481565b6105e6610f31565b73ffffffffffffffffffffffffffffffffffffffff163373ffffffffffffffffffffffffffffffffffffffff161461061d57600080fd5b7ff07b2223df45e70fcdee144c970199ab645065ed7d1649671d4c50372dc71f4a816040518080602001828103825283818151815260200191508051906020019080838360005b8381101561067f578082015181840152602081019050610664565b50505050905090810190601f1680156106ac5780820380516001836020036101000a031916815260200191505b509250505060405180910390a16106c481600261124e565b600a819055506106d261153e565b600b819055506106e06119d5565b60088190555042600c819055506106f5611c35565b600d819055505050565b60008061070b8361221c565b9050600361071b600c54426123ee565b111561072657600080fd5b82600760009054906101000a900473ffffffffffffffffffffffffffffffffffffffff1673ffffffffffffffffffffffffffffffffffffffff166370a08231306040518263ffffffff1660e01b8152600401808273ffffffffffffffffffffffffffffffffffffffff1673ffffffffffffffffffffffffffffffffffffffff16815260200191505060206040518083038186803b1580156107c657600080fd5b505afa1580156107da573d6000803e3d6000fd5b505050506040513d60208110156107f057600080fd5b8101908080519060200190929190505050101561080c57600080fd5b600660009054906101000a900473ffffffffffffffffffffffffffffffffffffffff1673ffffffffffffffffffffffffffffffffffffffff166323b872dd3330846040518463ffffffff1660e01b8152600401808473ffffffffffffffffffffffffffffffffffffffff1673ffffffffffffffffffffffffffffffffffffffff1681526020018373ffffffffffffffffffffffffffffffffffffffff1673ffffffffffffffffffffffffffffffffffffffff1681526020018281526020019350505050602060405180830381600087803b1580156108e957600080fd5b505af11580156108fd573d6000803e3d6000fd5b505050506040513d602081101561091357600080fd5b810190808051906020019092919050505061092d57600080fd5b600760009054906101000a900473ffffffffffffffffffffffffffffffffffffffff1673ffffffffffffffffffffffffffffffffffffffff1663a9059cbb33856040518363ffffffff1660e01b8152600401808373ffffffffffffffffffffffffffffffffffffffff1673ffffffffffffffffffffffffffffffffffffffff16815260200182815260200192505050602060405180830381600087803b1580156109d657600080fd5b505af11580156109ea573d6000803e3d6000fd5b505050506040513d6020811015610a0057600080fd5b8101908080519060200190929190505050610a1a57600080fd5b826009600082825401925050819055507f5e5e995ce3133561afceaa51a9a154d5db228cd7525d34df5185582c18d3df093384604051808373ffffffffffffffffffffffffffffffffffffffff1673ffffffffffffffffffffffffffffffffffffffff1681526020018281526020019250505060405180910390a16001915050919050565b6000801b600360008060001b815260200190815260200160002081905550505050565b600760009054906101000a900473ffffffffffffffffffffffffffffffffffffffff1681565b600080610af48361221c565b90506003610b04600c54426123ee565b1115610b0f57600080fd5b80600660009054906101000a900473ffffffffffffffffffffffffffffffffffffffff1673ffffffffffffffffffffffffffffffffffffffff166370a08231306040518263ffffffff1660e01b8152600401808273ffffffffffffffffffffffffffffffffffffffff1673ffffffffffffffffffffffffffffffffffffffff16815260200191505060206040518083038186803b158015610baf57600080fd5b505afa158015610bc3573d6000803e3d6000fd5b505050506040513d6020811015610bd957600080fd5b81019080805190602001909291905050501015610bf557600080fd5b600760009054906101000a900473ffffffffffffffffffffffffffffffffffffffff1673ffffffffffffffffffffffffffffffffffffffff166323b872dd3330866040518463ffffffff1660e01b8152600401808473ffffffffffffffffffffffffffffffffffffffff1673ffffffffffffffffffffffffffffffffffffffff1681526020018373ffffffffffffffffffffffffffffffffffffffff1673ffffffffffffffffffffffffffffffffffffffff1681526020018281526020019350505050602060405180830381600087803b158015610cd257600080fd5b505af1158015610ce6573d6000803e3d6000fd5b505050506040513d6020811015610cfc57600080fd5b8101908080519060200190929190505050610d1657600080fd5b600660009054906101000a900473ffffffffffffffffffffffffffffffffffffffff1673ffffffffffffffffffffffffffffffffffffffff1663a9059cbb33836040518363ffffffff1660e01b8152600401808373ffffffffffffffffffffffffffffffffffffffff1673ffffffffffffffffffffffffffffffffffffffff16815260200182815260200192505050602060405180830381600087803b158015610dbf57600080fd5b505af1158015610dd3573d6000803e3d6000fd5b505050506040513d6020811015610de957600080fd5b8101908080519060200190929190505050610e0357600080fd5b826009600082825403925050819055507f5e5e995ce3133561afceaa51a9a154d5db228cd7525d34df5185582c18d3df093084604051808373ffffffffffffffffffffffffffffffffffffffff1673ffffffffffffffffffffffffffffffffffffffff1681526020018281526020019250505060405180910390a16001915050919050565b60095481565b60085481565b600c5481565b6000600560009054906101000a900473ffffffffffffffffffffffffffffffffffffffff1673ffffffffffffffffffffffffffffffffffffffff163373ffffffffffffffffffffffffffffffffffffffff1614610ef657600080fd5b610efe612454565b6001905090565b600660009054906101000a900473ffffffffffffffffffffffffffffffffffffffff1681565b600a5481565b60008073ffffffffffffffffffffffffffffffffffffffff16600160009054906101000a900473ffffffffffffffffffffffffffffffffffffffff1673ffffffffffffffffffffffffffffffffffffffff161480610fb957506000610fb7600160009054906101000a900473ffffffffffffffffffffffffffffffffffffffff166125e1565b145b15610fca57610fc860006125ec565b505b600160009054906101000a900473ffffffffffffffffffffffffffffffffffffffff1673ffffffffffffffffffffffffffffffffffffffff166338cc48316040518163ffffffff1660e01b8152600401602060405180830381600087803b15801561103457600080fd5b505af1158015611048573d6000803e3d6000fd5b505050506040513d602081101561105e57600080fd5b810190808051906020019092919050505073ffffffffffffffffffffffffffffffffffffffff166000809054906101000a900473ffffffffffffffffffffffffffffffffffffffff1673ffffffffffffffffffffffffffffffffffffffff16146111a757600160009054906101000a900473ffffffffffffffffffffffffffffffffffffffff1673ffffffffffffffffffffffffffffffffffffffff166338cc48316040518163ffffffff1660e01b8152600401602060405180830381600087803b15801561112c57600080fd5b505af1158015611140573d6000803e3d6000fd5b505050506040513d602081101561115657600080fd5b81019080805190602001909291905050506000806101000a81548173ffffffffffffffffffffffffffffffffffffffff021916908373ffffffffffffffffffffffffffffffffffffffff1602179055505b6000809054906101000a900473ffffffffffffffffffffffffffffffffffffffff1673ffffffffffffffffffffffffffffffffffffffff1663c281d19e6040518163ffffffff1660e01b815260040160206040518083038186803b15801561120e57600080fd5b505afa158015611222573d6000803e3d6000fd5b505050506040513d602081101561123857600080fd5b8101908080519060200190929190505050905090565b60006060604051806020016040528060008152509050600080905060008090506000809050606061127e886125fd565b905061129981604051806020016040528060008152506126aa565b156112af576112a88888612799565b9250611381565b6112bc8860018a516128ac565b94506112c88588612799565b93508373__FixidityLib___________________________633c4308a890917fffffffffffffffffffffffffffffffffffffffffffff2c3de43133125f0000006040518363ffffffff1660e01b8152600401808381526020018281526020019250505060206040518083038186803b15801561134357600080fd5b505af4158015611357573d6000803e3d6000fd5b505050506040513d602081101561136d57600080fd5b810190808051906020019092919050505092505b8273__FixidityLib___________________________63bd5cbd6290916040518263ffffffff1660e01b81526004018082815260200191505060206040518083038186803b1580156113d257600080fd5b505af41580156113e6573d6000803e3d6000fd5b505050506040513d60208110156113fc57600080fd5b810190808051906020019092919050505073__FixidityLib___________________________63f5984236909189600a0a73__FixidityLib___________________________63bd5cbd6290916040518263ffffffff1660e01b81526004018082815260200191505060206040518083038186803b15801561147d57600080fd5b505af4158015611491573d6000803e3d6000fd5b505050506040513d60208110156114a757600080fd5b81019080805190602001909291905050506040518363ffffffff1660e01b8152600401808381526020018281526020019250505060206040518083038186803b1580156114f357600080fd5b505af4158015611507573d6000803e3d6000fd5b505050506040513d602081101561151d57600080fd5b81019080805190602001909291905050509150819550505050505092915050565b600080601473__FixidityLib___________________________63bd5cbd6290916040518263ffffffff1660e01b81526004018082815260200191505060206040518083038186803b15801561159357600080fd5b505af41580156115a7573d6000803e3d6000fd5b505050506040513d60208110156115bd57600080fd5b810190808051906020019092919050505073__FixidityLib___________________________63f59842369091606473__FixidityLib___________________________63bd5cbd6290916040518263ffffffff1660e01b81526004018082815260200191505060206040518083038186803b15801561163c57600080fd5b505af4158015611650573d6000803e3d6000fd5b505050506040513d602081101561166657600080fd5b81019080805190602001909291905050506040518363ffffffff1660e01b8152600401808381526020018281526020019250505060206040518083038186803b1580156116b257600080fd5b505af41580156116c6573d6000803e3d6000fd5b505050506040513d60208110156116dc57600080fd5b810190808051906020019092919050505090506000601073__FixidityLib___________________________63bd5cbd6290916040518263ffffffff1660e01b81526004018082815260200191505060206040518083038186803b15801561174357600080fd5b505af4158015611757573d6000803e3d6000fd5b505050506040513d602081101561176d57600080fd5b810190808051906020019092919050505073__FixidityLib___________________________63f59842369091606473__FixidityLib___________________________63bd5cbd6290916040518263ffffffff1660e01b81526004018082815260200191505060206040518083038186803b1580156117ec57600080fd5b505af4158015611800573d6000803e3d6000fd5b505050506040513d602081101561181657600080fd5b81019080805190602001909291905050506040518363ffffffff1660e01b8152600401808381526020018281526020019250505060206040518083038186803b15801561186257600080fd5b505af4158015611876573d6000803e3d6000fd5b505050506040513d602081101561188c57600080fd5b8101908080519060200190929190505050905060008273__FixidityLib___________________________63b93ea8129091600a5473__FixidityLib___________________________633c4308a89091876040518363ffffffff1660e01b8152600401808381526020018281526020019250505060206040518083038186803b15801561191957600080fd5b505af415801561192d573d6000803e3d6000fd5b505050506040513d602081101561194357600080fd5b81019080805190602001909291905050506040518363ffffffff1660e01b8152600401808381526020018281526020019250505060206040518083038186803b15801561198f57600080fd5b505af41580156119a3573d6000803e3d6000fd5b505050506040513d60208110156119b957600080fd5b8101908080519060200190929190505050905080935050505090565b60008060085473__FixidityLib___________________________633c4308a89091600b5473__FixidityLib___________________________63f59842369091600c73__FixidityLib___________________________63bd5cbd6290916040518263ffffffff1660e01b81526004018082815260200191505060206040518083038186803b158015611a6857600080fd5b505af4158015611a7c573d6000803e3d6000fd5b505050506040513d6020811015611a9257600080fd5b81019080805190602001909291905050506040518363ffffffff1660e01b8152600401808381526020018281526020019250505060206040518083038186803b158015611ade57600080fd5b505af4158015611af2573d6000803e3d6000fd5b505050506040513d6020811015611b0857600080fd5b810190808051906020019092919050505073__FixidityLib___________________________63a5f3c23b909169d3c21bcecceda10000006040518363ffffffff1660e01b8152600401808381526020018281526020019250505060206040518083038186803b158015611b7b57600080fd5b505af4158015611b8f573d6000803e3d6000fd5b505050506040513d6020811015611ba557600080fd5b81019080805190602001909291905050506040518363ffffffff1660e01b8152600401808381526020018281526020019250505060206040518083038186803b158015611bf157600080fd5b505af4158015611c05573d6000803e3d6000fd5b505050506040513d6020811015611c1b57600080fd5b810190808051906020019092919050505090508091505090565b60008060085473__FixidityLib___________________________633c4308a89091611ef2600760009054906101000a900473ffffffffffffffffffffffffffffffffffffffff1673ffffffffffffffffffffffffffffffffffffffff166370a08231600560009054906101000a900473ffffffffffffffffffffffffffffffffffffffff166040518263ffffffff1660e01b8152600401808273ffffffffffffffffffffffffffffffffffffffff1673ffffffffffffffffffffffffffffffffffffffff16815260200191505060206040518083038186803b158015611d1b57600080fd5b505afa158015611d2f573d6000803e3d6000fd5b505050506040513d6020811015611d4557600080fd5b8101908080519060200190929190505050611ee4600760009054906101000a900473ffffffffffffffffffffffffffffffffffffffff1673ffffffffffffffffffffffffffffffffffffffff166370a08231306040518263ffffffff1660e01b8152600401808273ffffffffffffffffffffffffffffffffffffffff1673ffffffffffffffffffffffffffffffffffffffff16815260200191505060206040518083038186803b158015611df857600080fd5b505afa158015611e0c573d6000803e3d6000fd5b505050506040513d6020811015611e2257600080fd5b8101908080519060200190929190505050600760009054906101000a900473ffffffffffffffffffffffffffffffffffffffff1673ffffffffffffffffffffffffffffffffffffffff166318160ddd6040518163ffffffff1660e01b815260040160206040518083038186803b158015611e9b57600080fd5b505afa158015611eaf573d6000803e3d6000fd5b505050506040513d6020811015611ec557600080fd5b810190808051906020019092919050505061296890919063ffffffff16565b61296890919063ffffffff16565b73__FixidityLib___________________________63bd5cbd6290916040518263ffffffff1660e01b81526004018082815260200191505060206040518083038186803b158015611f4257600080fd5b505af4158015611f56573d6000803e3d6000fd5b505050506040513d6020811015611f6c57600080fd5b81019080805190602001909291905050506040518363ffffffff1660e01b8152600401808381526020018281526020019250505060206040518083038186803b158015611fb857600080fd5b505af4158015611fcc573d6000803e3d6000fd5b505050506040513d6020811015611fe257600080fd5b8101908080519060200190929190505050905060008114156120115769d3c21bcecceda1000000915050612219565b6000600660009054906101000a900473ffffffffffffffffffffffffffffffffffffffff1673ffffffffffffffffffffffffffffffffffffffff166370a08231306040518263ffffffff1660e01b8152600401808273ffffffffffffffffffffffffffffffffffffffff1673ffffffffffffffffffffffffffffffffffffffff16815260200191505060206040518083038186803b1580156120b257600080fd5b505afa1580156120c6573d6000803e3d6000fd5b505050506040513d60208110156120dc57600080fd5b810190808051906020019092919050505073__FixidityLib___________________________63bd5cbd6290916040518263ffffffff1660e01b81526004018082815260200191505060206040518083038186803b15801561213d57600080fd5b505af4158015612151573d6000803e3d6000fd5b505050506040513d602081101561216757600080fd5b8101908080519060200190929190505050905060008173__FixidityLib___________________________63f59842369091856040518363ffffffff1660e01b8152600401808381526020018281526020019250505060206040518083038186803b1580156121d557600080fd5b505af41580156121e9573d6000803e3d6000fd5b505050506040513d60208110156121ff57600080fd5b810190808051906020019092919050505090508093505050505b90565b6000808273__FixidityLib___________________________63bd5cbd6290916040518263ffffffff1660e01b81526004018082815260200191505060206040518083038186803b15801561227057600080fd5b505af4158015612284573d6000803e3d6000fd5b505050506040513d602081101561229a57600080fd5b810190808051906020019092919050505073__FixidityLib___________________________633c4308a890916008546040518363ffffffff1660e01b8152600401808381526020018281526020019250505060206040518083038186803b15801561230557600080fd5b505af4158015612319573d6000803e3d6000fd5b505050506040513d602081101561232f57600080fd5b810190808051906020019092919050505073__FixidityLib___________________________634daaea539091601860126040518463ffffffff1660e01b8152600401808481526020018360ff1681526020018260ff168152602001935050505060206040518083038186803b1580156123a857600080fd5b505af41580156123bc573d6000803e3d6000fd5b505050506040513d60208110156123d257600080fd5b8101908080519060200190929190505050905080915050919050565b6000818311156123fd57600080fd5b600060189050600061242c603c61241e603c856129b290919063ffffffff16565b6129b290919063ffffffff16565b905080612442868661296890919063ffffffff16565b8161244957fe5b049250505092915050565b476124936040518060400160405280600381526020017f55524c0000000000000000000000000000000000000000000000000000000000815250612a38565b11156124e9577f4cd3e05558dc434b7b222972fa66803efd137976460dd5bd71d67fdf40195be460405180806020018281038252604b815260200180613cb3604b913960600191505060405180910390a16125df565b60606124f3612dc9565b9050606061254f6040518060a0016040528060758152602001613d1f60759139836040518060400160405280600681526020017f2e76616c75650000000000000000000000000000000000000000000000000000815250612e18565b90506125906040518060400160405280600381526020017f55524c000000000000000000000000000000000000000000000000000000000081525082612f34565b507f4cd3e05558dc434b7b222972fa66803efd137976460dd5bd71d67fdf40195be4604051808060200182810382526035815260200180613c7e6035913960400191505060405180910390a150505b565b6000813b9050919050565b60006125f661347a565b9050919050565b60608061260d83600060016128ac565b90506060604051806020016040528060008152509050612662826040518060400160405280600181526020017f2d000000000000000000000000000000000000000000000000000000000000008152506126aa565b156126a0576040518060400160405280600181526020017f2d0000000000000000000000000000000000000000000000000000000000000081525090505b8092505050919050565b6000816040516020018082805190602001908083835b602083106126e357805182526020820191506020810190506020830392506126c0565b6001836020036101000a03801982511681845116808217855250505050505090500191505060405160208183030381529060405280519060200120836040516020018082805190602001908083835b602083106127555780518252602082019150602081019050602083039250612732565b6001836020036101000a0380198251168184511680821785525050505050509050019150506040516020818303038152906040528051906020012014905092915050565b600060608390506000809050600080905060008090505b835181101561288d5760308482815181106127c757fe5b602001015160f81c60f81b60f81c60ff1610158015612803575060398482815181106127ef57fe5b602001015160f81c60f81b60f81c60ff1611155b1561285557811561282657600086141561281c5761288d565b8580600190039650505b600a83029250603084828151811061283a57fe5b602001015160f81c60f81b60f81c60ff160383019250612880565b602e84828151811061286357fe5b602001015160f81c60f81b60f81c60ff16141561287f57600191505b5b80806001019150506127b0565b5060008511156128a05784600a0a820291505b81935050505092915050565b60608084905060608484036040519080825280601f01601f1916602001820160405280156128e95781602001600182028038833980820191505090505b50905060008590505b8481101561295b5782818151811061290657fe5b602001015160f81c60f81b828783038151811061291f57fe5b60200101907effffffffffffffffffffffffffffffffffffffffffffffffffffffffffffff1916908160001a90535080806001019150506128f2565b5080925050509392505050565b60006129aa83836040518060400160405280601e81526020017f536166654d6174683a207375627472616374696f6e206f766572666c6f7700008152506139d1565b905092915050565b6000808314156129c55760009050612a32565b60008284029050828482816129d657fe5b0414612a2d576040517f08c379a0000000000000000000000000000000000000000000000000000000008152600401808060200182810382526021815260200180613cfe6021913960400191505060405180910390fd5b809150505b92915050565b60008073ffffffffffffffffffffffffffffffffffffffff16600160009054906101000a900473ffffffffffffffffffffffffffffffffffffffff1673ffffffffffffffffffffffffffffffffffffffff161480612ac057506000612abe600160009054906101000a900473ffffffffffffffffffffffffffffffffffffffff166125e1565b145b15612ad157612acf60006125ec565b505b600160009054906101000a900473ffffffffffffffffffffffffffffffffffffffff1673ffffffffffffffffffffffffffffffffffffffff166338cc48316040518163ffffffff1660e01b8152600401602060405180830381600087803b158015612b3b57600080fd5b505af1158015612b4f573d6000803e3d6000fd5b505050506040513d6020811015612b6557600080fd5b810190808051906020019092919050505073ffffffffffffffffffffffffffffffffffffffff166000809054906101000a900473ffffffffffffffffffffffffffffffffffffffff1673ffffffffffffffffffffffffffffffffffffffff1614612cae57600160009054906101000a900473ffffffffffffffffffffffffffffffffffffffff1673ffffffffffffffffffffffffffffffffffffffff166338cc48316040518163ffffffff1660e01b8152600401602060405180830381600087803b158015612c3357600080fd5b505af1158015612c47573d6000803e3d6000fd5b505050506040513d6020811015612c5d57600080fd5b81019080805190602001909291905050506000806101000a81548173ffffffffffffffffffffffffffffffffffffffff021916908373ffffffffffffffffffffffffffffffffffffffff1602179055505b6000809054906101000a900473ffffffffffffffffffffffffffffffffffffffff1673ffffffffffffffffffffffffffffffffffffffff1663524f3889836040518263ffffffff1660e01b81526004018080602001828103825283818151815260200191508051906020019080838360005b83811015612d3b578082015181840152602081019050612d20565b50505050905090810190601f168015612d685780820380516001836020036101000a031916815260200191505b5092505050602060405180830381600087803b158015612d8757600080fd5b505af1158015612d9b573d6000803e3d6000fd5b505050506040513d6020811015612db157600080fd5b81019080805190602001909291905050509050919050565b6060600061069390506000635ebab9f090506000612de782426123ee565b90506000601e8281612df557fe5b049050600081850190506060612e0a82613a91565b905080965050505050505090565b60608383836040516020018084805190602001908083835b60208310612e535780518252602082019150602081019050602083039250612e30565b6001836020036101000a03801982511681845116808217855250505050505090500183805190602001908083835b60208310612ea45780518252602082019150602081019050602083039250612e81565b6001836020036101000a03801982511681845116808217855250505050505090500182805190602001908083835b60208310612ef55780518252602082019150602081019050602083039250612ed2565b6001836020036101000a038019825116818451168082178552505050505050905001935050505060405160208183030381529060405290509392505050565b60008073ffffffffffffffffffffffffffffffffffffffff16600160009054906101000a900473ffffffffffffffffffffffffffffffffffffffff1673ffffffffffffffffffffffffffffffffffffffff161480612fbc57506000612fba600160009054906101000a900473ffffffffffffffffffffffffffffffffffffffff166125e1565b145b15612fcd57612fcb60006125ec565b505b600160009054906101000a900473ffffffffffffffffffffffffffffffffffffffff1673ffffffffffffffffffffffffffffffffffffffff166338cc48316040518163ffffffff1660e01b8152600401602060405180830381600087803b15801561303757600080fd5b505af115801561304b573d6000803e3d6000fd5b505050506040513d602081101561306157600080fd5b810190808051906020019092919050505073ffffffffffffffffffffffffffffffffffffffff166000809054906101000a900473ffffffffffffffffffffffffffffffffffffffff1673ffffffffffffffffffffffffffffffffffffffff16146131aa57600160009054906101000a900473ffffffffffffffffffffffffffffffffffffffff1673ffffffffffffffffffffffffffffffffffffffff166338cc48316040518163ffffffff1660e01b8152600401602060405180830381600087803b15801561312f57600080fd5b505af1158015613143573d6000803e3d6000fd5b505050506040513d602081101561315957600080fd5b81019080805190602001909291905050506000806101000a81548173ffffffffffffffffffffffffffffffffffffffff021916908373ffffffffffffffffffffffffffffffffffffffff1602179055505b60008060009054906101000a900473ffffffffffffffffffffffffffffffffffffffff1673ffffffffffffffffffffffffffffffffffffffff1663524f3889856040518263ffffffff1660e01b81526004018080602001828103825283818151815260200191508051906020019080838360005b8381101561323957808201518184015260208101905061321e565b50505050905090810190601f1680156132665780820380516001836020036101000a031916815260200191505b5092505050602060405180830381600087803b15801561328557600080fd5b505af1158015613299573d6000803e3d6000fd5b505050506040513d60208110156132af57600080fd5b8101908080519060200190929190505050905062030d403a02670de0b6b3a7640000018111156132e5576000801b915050613474565b6000809054906101000a900473ffffffffffffffffffffffffffffffffffffffff1673ffffffffffffffffffffffffffffffffffffffff1663adf59f9982600087876040518563ffffffff1660e01b8152600401808481526020018060200180602001838103835285818151815260200191508051906020019080838360005b83811015613380578082015181840152602081019050613365565b50505050905090810190601f1680156133ad5780820380516001836020036101000a031916815260200191505b50838103825284818151815260200191508051906020019080838360005b838110156133e65780820151818401526020810190506133cb565b50505050905090810190601f1680156134135780820380516001836020036101000a031916815260200191505b50955050505050506020604051808303818588803b15801561343457600080fd5b505af1158015613448573d6000803e3d6000fd5b50505050506040513d602081101561345f57600080fd5b81019080805190602001909291905050509150505b92915050565b60008061349a731d3b2638a7cc9f2cb3d298a3da7a90b67e5506ed6125e1565b111561353c57731d3b2638a7cc9f2cb3d298a3da7a90b67e5506ed600160006101000a81548173ffffffffffffffffffffffffffffffffffffffff021916908373ffffffffffffffffffffffffffffffffffffffff1602179055506135336040518060400160405280600b81526020017f6574685f6d61696e6e6574000000000000000000000000000000000000000000815250613bbe565b600190506139ce565b600061355b73c03a2615d5efaf5f49f60b7bb6583eaec212fdf16125e1565b11156135fd5773c03a2615d5efaf5f49f60b7bb6583eaec212fdf1600160006101000a81548173ffffffffffffffffffffffffffffffffffffffff021916908373ffffffffffffffffffffffffffffffffffffffff1602179055506135f46040518060400160405280600c81526020017f6574685f726f707374656e330000000000000000000000000000000000000000815250613bbe565b600190506139ce565b600061361c73b7a07bcf2ba2f2703b24c0691b5278999c59ac7e6125e1565b11156136be5773b7a07bcf2ba2f2703b24c0691b5278999c59ac7e600160006101000a81548173ffffffffffffffffffffffffffffffffffffffff021916908373ffffffffffffffffffffffffffffffffffffffff1602179055506136b56040518060400160405280600981526020017f6574685f6b6f76616e0000000000000000000000000000000000000000000000815250613bbe565b600190506139ce565b60006136dd73146500cfd35b22e4a392fe0adc06de1a1368ed486125e1565b111561377f5773146500cfd35b22e4a392fe0adc06de1a1368ed48600160006101000a81548173ffffffffffffffffffffffffffffffffffffffff021916908373ffffffffffffffffffffffffffffffffffffffff1602179055506137766040518060400160405280600b81526020017f6574685f72696e6b656279000000000000000000000000000000000000000000815250613bbe565b600190506139ce565b600061379e73a2998efd205fb9d4b4963afb70778d6354ad3a416125e1565b11156138405773a2998efd205fb9d4b4963afb70778d6354ad3a41600160006101000a81548173ffffffffffffffffffffffffffffffffffffffff021916908373ffffffffffffffffffffffffffffffffffffffff1602179055506138376040518060400160405280600a81526020017f6574685f676f65726c6900000000000000000000000000000000000000000000815250613bbe565b600190506139ce565b600061385f736f485c8bf6fc43ea212e93bbf8ce046c7f1cb4756125e1565b11156138c357736f485c8bf6fc43ea212e93bbf8ce046c7f1cb475600160006101000a81548173ffffffffffffffffffffffffffffffffffffffff021916908373ffffffffffffffffffffffffffffffffffffffff160217905550600190506139ce565b60006138e27320e12a1f859b3feae5fb2a0a32c18f5a65555bbf6125e1565b1115613946577320e12a1f859b3feae5fb2a0a32c18f5a65555bbf600160006101000a81548173ffffffffffffffffffffffffffffffffffffffff021916908373ffffffffffffffffffffffffffffffffffffffff160217905550600190506139ce565b60006139657351efaf4c8b3c9afbd5ab9f4bbc82784ab6ef8faa6125e1565b11156139c9577351efaf4c8b3c9afbd5ab9f4bbc82784ab6ef8faa600160006101000a81548173ffffffffffffffffffffffffffffffffffffffff021916908373ffffffffffffffffffffffffffffffffffffffff160217905550600190506139ce565b600090505b90565b6000838311158290613a7e576040517f08c379a00000000000000000000000000000000000000000000000000000000081526004018080602001828103825283818151815260200191508051906020019080838360005b83811015613a43578082015181840152602081019050613a28565b50505050905090810190601f168015613a705780820380516001836020036101000a031916815260200191505b509250505060405180910390fd5b5060008385039050809150509392505050565b60606000821415613ad9576040518060400160405280600181526020017f30000000000000000000000000000000000000000000000000000000000000008152509050613bb9565b600082905060005b60008214613b03578080600101915050600a8281613afb57fe5b049150613ae1565b6060816040519080825280601f01601f191660200182016040528015613b385781602001600182028038833980820191505090505b50905060006001830390505b60008614613bb157600a8681613b5657fe5b0660300160f81b82828060019003935081518110613b7057fe5b60200101907effffffffffffffffffffffffffffffffffffffffffffffffffffffffffffff1916908160001a905350600a8681613ba957fe5b049550613b44565b819450505050505b919050565b8060029080519060200190613bd4929190613bd8565b5050565b828054600181600116156101000203166002900490600052602060002090601f016020900481019282601f10613c1957805160ff1916838001178555613c47565b82800160010185558215613c47579182015b82811115613c46578251825591602001919060010190613c2b565b5b509050613c549190613c58565b5090565b613c7a91905b80821115613c76576000816000905550600101613c5e565b5090565b9056fe50726f7661626c65207175657279207761732073656e742c207374616e64696e6720627920666f722074686520616e737765722e2e50726f7661626c6520717565727920776173204e4f542073656e742c20706c656173652061646420736f6d652045544820746f20636f76657220666f722074686520717565727920666565536166654d6174683a206d756c7469706c69636174696f6e206f766572666c6f77786d6c2868747470733a2f2f7777772e6e6364632e6e6f61612e676f762f6361672f676c6f62616c2f74696d652d7365726965732f676c6f62652f6c616e645f6f6365616e2f616c6c2f31322f313838302d323032302f646174612e786d6c292e64617461436f6c6c656374696f6e2e646174612ea265627a7a72315820952670d14c68f0a8286b536881e677e9a34f9547e0351aba5d5b9ee9f91726be64736f6c63430005100032",
  "source": "pragma solidity ^0.5.16;\n\nimport \"./PoliToken.sol\";\nimport \"./usingProvable.sol\";\nimport \"./SafeMath.sol\";\nimport \"./Fixidity.sol\";\n\n\ninterface DaiToken {\n    function transfer(address dst, uint wad) external returns (bool);\n    function transferFrom(address src, address dst, uint wad) external returns (bool);\n    function balanceOf(address guy) external view returns (uint);\n}\n\ncontract PoliTokenFund is usingOraclize {\n\t// Conditioners\n\tusing SafeMath for uint;\n\tusing FixidityLib for int;\n\n\n\t// Storage\n\taddress admin;\n\n\tDaiToken public daiToken; // to interact with DAI token contract, using the interface above\n\tPoliToken public tokenContract;\n\tuint public tokenPrice; // price 'p' at which polis can be redeemed for DAI (DAI/poli); each period, this price grows with the lastGrowthRate 'd' like this: p[t1] = p[t0] * (1 + d[t1]/12)\n\tuint public tokensIssued;\n\n\tint public lastPublicOutcome = int(1).newFixed(); // value to be used to calculate the growth of poli holder funds\n\tint public lastGrowthRate = int(4).newFixed().divide(int(100).newFixed()); // DAI rate (annualized) in 10^24, to compound per issued poli monthly (translates to 0.04)\n\tuint public lastGrowthTime = now;\n\tuint public capitalizationRatio = uint(int(1).newFixed()); // the degree to which this contract is funded; 1*10^24 == 100% funded\n\n\n\t// Transaction Events\n\tevent Sell(\n\t\taddress _buyer,\n\t\tuint _amount\n\t);\n\n\t/// @notice Logs the address of the sender and amounts paid to the contract\n  \tevent Paid(address indexed _from, uint _value);\n\n\n\t// Provable Events\n\tevent NewProvableQuery(string _description);\n\tevent NewPublicOutcome(string _outcome);\n\n\n\t// Constructor\n\tconstructor(DaiToken _daiContract, PoliToken _tokenContract, int _tokenPrice) public {\n\t\t// initialize properties\n\t\tadmin = msg.sender;\n\t\t//OAR = OraclizeAddrResolverI(0x6f485C8BF6fc43eA212E93BBF8ce046C7f1cb475); // used in local testing: instantiated after successfully configuring the Ethereum bridge\n\t\ttokenContract = _tokenContract;\n\t\ttokenPrice = uint(_tokenPrice.newFixed());\n\t\tdaiToken = DaiToken(_daiContract); // to enable purchases and sales in DAI; this address is the Ropsten MCD-DAI contract address\n\t}\n\n\n\t/// @notice Any funds sent to this function will be unrecoverable\n  \t/// @dev This function receives funds, there is currently no way to send funds back\n\tfunction () external payable {\n\t    emit Paid(msg.sender, msg.value);\n\t}\n\n\n\t// Transaction Methods\n  \tfunction buyTokens(uint _poliAmount) external returns (bool success) {\n\t\tuint _daiAmount = toDAI(_poliAmount);\n\n\t\t// ensure that sale takes place within the purchase/sale window: within 3 days following a priceUpdate (259,200 seconds)\n\t\trequire(diffDays(lastGrowthTime, now) <= 3);\n\n\t\t// ensure that poliFund has the required balance to transfer to buyer\n\t    require(tokenContract.balanceOf(address(this)) >= _poliAmount);\n\t\t\n\t\t// execute the purchase\n\t\trequire(daiToken.transferFrom(msg.sender, address(this), _daiAmount));\n\t\trequire(tokenContract.transfer(msg.sender, _poliAmount));\n\n\t    tokensIssued += _poliAmount;\n\n\t\temit Sell(msg.sender, _poliAmount);\n\t\treturn true;\n\t}\n\n\tfunction sellTokens(uint _poliAmount) external returns (bool success) {\n\t\tuint _daiAmount = toDAI(_poliAmount);\n\n\t\t// ensure that sale takes place within the purchase/sale window: within 3 days following a priceUpdate\n\t\trequire(diffDays(lastGrowthTime, now) <= 3);\n\n\t\t// ensure that poliFund has the required balance to transfer to buyer\n\t\trequire(daiToken.balanceOf(address(this)) >= _daiAmount);\n\n\t\t// execute the sale - paying the seller first\n\t\trequire(tokenContract.transferFrom(msg.sender, address(this), _poliAmount));\n\t\trequire(daiToken.transfer(msg.sender, _daiAmount));\n\n\t\ttokensIssued -= _poliAmount;\n\n\t\temit Sell(address(this), _poliAmount);\n\t\treturn true;\n\t}\n\n\n\t// Exchange Rate Methods\n\tfunction accrueGrowth() public returns (bool success) {\n\t\t// permit only the admin to cause the poli to accrue growth\n\t\trequire(msg.sender == admin);\n\n\t\t// make a usingProvable call to the given public outcome (e.g., global temperatures)\n\t\tupdatePublicOutcome();\n\n\t\treturn true;\n\t}\n\n\tfunction updatePublicOutcome() private {\n\t\tif (oraclize_getPrice(\"URL\") > address(this).balance) {\n            emit NewProvableQuery(\"Provable query was NOT sent, please add some ETH to cover for the query fee\");\n        } else {\n            // calculate query month string\n            string memory _queryIndex = getOracleQueryIndex();\n\n        \t// fire off oracle query - good only through 2020\n            string memory _jsonQueryStr = append(\"xml(https://www.ncdc.noaa.gov/cag/global/time-series/globe/land_ocean/all/12/1880-2020/data.xml).dataCollection.data.\", _queryIndex, \".value\");\n       \t\toraclize_query(\"URL\", _jsonQueryStr);\n       \t\temit NewProvableQuery(\"Provable query was sent, standing by for the answer..\");\n        }\n\t}\n\n\t// __callback is called only in updatePublicOutcome(), which itself is only called by accrueGrowth()\n\tfunction __callback(bytes32 _queryId, string memory _result) public {\n\t\trequire(msg.sender == oraclize_cbAddress());\n\t\temit NewPublicOutcome(_result);\n\n\t\tlastPublicOutcome = parseSignedInt(_result, 2);\n\n\t\t// calculate the last growth rate, which is a function of the public outcome value: r = f(o)\n\t\tlastGrowthRate = calculateLastGrowthRate();\n\n\t\t// update poli price\n\t\ttokenPrice = updatePrice();\n\n\t\t// update last growth date\n\t\tlastGrowthTime = now;\n\t\t\n\t\t// update capitalizationRatio\n\t\tcapitalizationRatio = updateCapitalizationRatio();\n\t}\n\n\n\t// Exchange Rate Helpers\n\tfunction toDAI(uint _poliAmount) internal view returns (uint dai) {\n\t    int _dai = ((int(_poliAmount).newFixed()).multiply(int(tokenPrice))).convertFixed(24, 18); // Poli prices are stored in 24 digits; DAI has 18 digits\n\t    return uint(_dai);\n\t}\n\n\tfunction calculateLastGrowthRate() internal view returns (int rate) {\n  \t\t// annualized growth rate per poli\n  \t\t// r = (20% - 16% * [anomaly in global average surface temperature in degrees Celsius])\n  \t\tint _yIntercept = int(20).newFixed().divide(int(100).newFixed());\n  \t\tint _slope = int(16).newFixed().divide(int(100).newFixed());\n  \t\tint _rate = _yIntercept.subtract(lastPublicOutcome.multiply(_slope));\n  \t\treturn _rate;\n  \t}\n\n  \tfunction updatePrice() internal view returns (uint price) {\n  \t\tint _price = int(tokenPrice).multiply((lastGrowthRate.divide((int(12).newFixed())).add(1000000000000000000000000)));\n  \t\treturn uint(_price);\n  \t}\n\n  \tfunction updateCapitalizationRatio() internal view returns (uint ratio) {\n  \t\tint _liabilities = int(tokenPrice).multiply(int(tokenContract.totalSupply().sub(tokenContract.balanceOf(address(this))).sub(tokenContract.balanceOf(admin))).newFixed()); // in DAI\n  \t\tif (_liabilities == 0) return 1000000000000000000000000;\n\n  \t\tint _assets = int(daiToken.balanceOf(address(this))).newFixed(); // in DAI\n  \t\tint _ratio = _assets.divide(_liabilities);\n  \t\treturn uint(_ratio);\n  \t}\n\n\n  \t// Other Helpers\n  \tfunction append(string memory a, string memory b, string memory c) internal pure returns (string memory d) {\n    \treturn string(abi.encodePacked(a, b, c));\n\t}\n\n\tfunction getOracleQueryIndex() internal view returns (string memory query) {\n\t\tuint _firstUpdateIndex = 1683; // index number corresponding to the May 12th, 11:00am EDT release of the monthly NOAA data\n\t\tuint _firstUpdateDateTime = 1589295600; // unix timestamp corresponding to the May 12th, 11:00am EDT release of the monthly NOAA data\n\t\tuint _daysSinceFirstUpdate = diffDays(_firstUpdateDateTime, now);\n\t\tuint _roundedMonthsSinceFirstUpdate = uint(_daysSinceFirstUpdate) / 30; // casting explicitly as uint here is meant to give the floor of the quotient using integer division: https://ethereum.stackexchange.com/questions/24985/solidity-how-to-get-floor-of-a-floating-value\n\t\tuint _queryIndex = _firstUpdateIndex + _roundedMonthsSinceFirstUpdate; // this should increment by 1 each month, starting after the May 12, 2020 release, which itself corresponds to \"1684\".\n\t\tstring memory _queryIndexStr = uint2str(_queryIndex);\n\t\treturn _queryIndexStr;\n\t}\n\n    function diffDays(uint fromTimestamp, uint toTimestamp) internal pure returns (uint _days) {\n        require(fromTimestamp <= toTimestamp);\n        uint _hoursPerDay = 24;\n        uint _secondsPerDay = _hoursPerDay.mul(60).mul(60);\n        _days = (toTimestamp.sub(fromTimestamp)) / _secondsPerDay;\n    }\n\n    function parseSignedInt(string memory _str, uint _digits) internal pure returns (int _int) {\n    \tstring memory _unsignedStr = \"\";\n    \tuint _unsignedInt = 0;\n    \tint _signedInt = 0;\n    \tint _signedIntFixed = 0;\n    \tstring memory _posNeg = getPosNeg(_str);\n    \tif (compareStrings(_posNeg, \"\")) {\n    \t\t_signedInt = int(parseInt(_str, _digits));\n    \t}\n    \telse {\n    \t\t_unsignedStr = substring(_str, 1, bytes(_str).length);\n    \t\t_unsignedInt = parseInt(_unsignedStr, _digits);\n    \t\t_signedInt = int(_unsignedInt).multiply(-1000000000000000000000000);\n    \t}\n    \t_signedIntFixed = (_signedInt.newFixed()).divide((int(10**_digits)).newFixed()); // turn into int 10^24, then scale for _digits, again\n    \treturn _signedIntFixed;\n    }\n\n    function getPosNeg(string memory _str) internal pure returns (string memory sign) {\n    \tstring memory _firstChar = substring(_str, 0, 1);\n    \tstring memory _sign = \"\";\n    \tif (compareStrings(_firstChar, \"-\")) {\n    \t\t_sign = \"-\";\n    \t}\n    \treturn _sign;\n    } \n\n    function substring(string memory str, uint startIndex, uint endIndex) internal pure returns (string memory substr) {\n\t    bytes memory strBytes = bytes(str);\n\t    bytes memory result = new bytes(endIndex-startIndex);\n\t    for(uint i = startIndex; i < endIndex; i++) {\n\t        result[i-startIndex] = strBytes[i];\n\t    }\n\t    return string(result);\n\t}\n\n\tfunction compareStrings (string memory a, string memory b) internal pure returns (bool equivalent) {\n  \t\treturn (keccak256(abi.encodePacked((a))) == keccak256(abi.encodePacked((b))) );\n    }\n}",
  "sourcePath": "/Users/alexandermucalov/polity-polis/blockchain/contracts/PoliTokenFund.sol",
  "compiler": {
    "name": "solc",
    "version": "0.5.16+commit.9c3226ce.Emscripten.clang"
  },
  "schemaVersion": "3.1.0",
  "updatedAt": "2020-06-09T03:42:33.730Z",
  "networkType": "ethereum",
  "devdoc": {
    "methods": {}
  },
  "userdoc": {
    "methods": {}
  }
}